:020000040800F2
:1000000050050020650100082107000819070008B5
:100010001D07000811070008310A00080000000051
:100020000000000000000000000000005107000870
:1000300015070008000000004D07000855070008DC
:100040007F0100087F0100087F0100087F01000890
:100050007F0100087F0100087F0100087F01000880
:100060007F0100087F0100087F0100087F01000870
:100070007F0100087F0100087F0100080D0A0008C9
:100080007F0100087F010008000000007F010008D8
:100090007F0100087F0100087F0100087F01000840
:1000A0007F0100087F0100087F0100087F01000830
:1000B0007F010008000000007F0100080000000030
:1000C0007F010008000000007F0100080000000020
:1000D0000000000000000000000000000000000020
:1000E00000000000000000007F0100080000000088
:1000F0000000000000000000000000000000000000
:100100007F01000800000000000000000000000067
:1001100000000000000000000000000000000000DF
:1001200000000000000000000000000000000000CF
:1001300000000000000000000000000000000000BF
:100140000000000000000000000000007F01000827
:10015000DFF80CD000F03CFA00480047252B0008DF
:10016000500500200648804706480047FEE7FEE7A6
:10017000FEE7FEE7FEE7FEE7FEE7FEE7FEE7FEE757
:100180005D0700085101000840EA01039B0703D006
:1001900009E008C9121F08C0042AFAD203E011F8C6
:1001A000013B00F8013B521EF9D2704700F00042BB
:1001B00030F000400AD0C10D01F56071C0F31600A7
:1001C00042EA0151C208400711437047002001462E
:1001D000704730B50B46014600202022012409E07B
:1001E00021FA02F59D4205D303FA02F5491B04FAF0
:1001F00002F52844151EA2F10102F1DC30BD2DE903
:10020000F05F0546002092469B468846064681469A
:1002100040241BE0284641464746224600F0F9F9B3
:1002200053465A46C01A914110D3114618462246E9
:1002300000F0E0F92D1A67EB01084F462246012035
:10024000002100F0D7F917EB00094E41201EA4F160
:100250000104DFDC484631462A464346BDE8F09FAC
:100260002DE9FE4F804681EA0300C00F0C46009046
:1002700021F0004123F00045B8EB0200A94105D26E
:100280004046214690461C460B46024623F000405D
:10029000104347D0270DC7F30A00C3F30A51029059
:1002A000401A019040286BDAC3F3130040F4801B1E
:1002B0000098924620B10023D2EB030A63EB0B0BAC
:1002C00001985946C0F14002504600F093F90646A5
:1002D0000D4650465946019A00F0ABF910EB080064
:1002E0006141002487EA115284EAE7731A4340D03F
:1002F000009A62B3019A012A4FEA075215DC001BEB
:1003000061EB02014FF0004202EA0752CDE90042E0
:10031000001C41F5801132462B4600F0ABF903B0CA
:10032000BDE8F08F40462146F9E7001B61EB020172
:10033000001C41F5801300185B412018A2F500173E
:1003400047EB030140EAD570B6196D4111E06D0825
:100350004FEA360645EAC0754FEA0752001B61EBCB
:100360000201001C41F5801149084FEA30000019D4
:10037000514132462B4603B0BDE8F04F00F06BB957
:100380000098012240000023D0EB020263EBE073EF
:10039000009821464FEAE074B8EB000061EB0401DD
:1003A000E9E783F000435BE781F0004158E72DE97E
:1003B000FE4F81EA030404F0004421F00041009460
:1003C0004FF0000B23F0004350EA01045ED052EAE4
:1003D00003045BD0C3F30A54C1F30A552C44A4F2BE
:1003E000F3340194A0FB0254C1F3130141F48011D2
:1003F000C3F3130343F4801301FB024400FB034ED9
:10040000840A970A44EA815447EA8357A4FB0768A1
:1004100002958D0A05FB07854FEA932C04FB0C54CB
:100420002705029D4FEA065847EA1637B5EB08053F
:100430006EEB070C870E920E47EA811742EA831291
:10044000A7FB0201B6EB0B0164EB00042B0D43EAA2
:100450000C335E1844EB1C50DA465146E7FB0201B0
:10046000C5F313044FEA0B3343EA14534FEA043243
:10047000019C43EA0603A4F10C040294009CCDE91C
:1004800000B400F0F7F803B0BDE8F08F002001469B
:10049000F9E72DE9F04D81EA030404F0004B21F067
:1004A000004514464FF0000A23F0004150EA0502CF
:1004B00020D054EA01021DD0C5F30A570246C5F305
:1004C0001303C1F31300C1F30A5640F4801543F43B
:1004D0008013A7EB0608101BD64608F2FD3873EB15
:1004E000050002D308F1010801E092185B41B8F160
:1004F000000F03DA00200146BDE8F08D00204FF424
:100500008011064684460EE0171B73EB050705D3E2
:10051000121B63EB050306434CEA010C49084FEA42
:10052000300092185B4150EA0107EDD152EA030016
:1005300012D082EA040083EA0501084305D0101BAB
:10054000AB4106D20122002306E000224FF0004317
:1005500002E06FF0010253101AEB06004CEB085159
:1005600010EB0A0041EB0B01BDE8F04D00F073B851
:10057000C1F30A52C1F3130140F2FF3341F4801179
:100580009A4202DA00200146704740F233439A4211
:10059000A2F2334202DC524200F03BB800F02AB82B
:1005A00030B5041E71F1000404DB4FF000444042FA
:1005B00064EB0101141E73F1000405DB1C464FF0CF
:1005C0000043524263EB0403994208BF904230BD9E
:1005D000064C074D06E0E06840F0010394E8070090
:1005E00098471034AC42F6D3FFF7B6FD70380008D8
:1005F00090380008202A04DB203A00FA02F100209B
:1006000070479140C2F1200320FA03F31943904050
:100610007047202A04DB203A21FA02F000217047BB
:1006200021FA02F3D040C2F120029140084319465A
:100630007047202A06DBCB17203A41FA02F043EA42
:10064000E07306E041FA02F3D040C2F1200291408B
:1006500008431946704710B5141E73F1000408DAF8
:10066000401C41F1000192185B411A4301D120F076
:10067000010010BD2DE9F04D92469B4611B1B1FA33
:1006800081F202E0B0FA80F220329046FFF7B2FF2A
:1006900004460F4640EA0A0041EA0B0153465A4617
:1006A000084313D0114653EA010019D0C8F14002A3
:1006B0005046FFF7AEFF05460E46504659464246A5
:1006C000FFF798FF084305D0012004E02046394693
:1006D000BDE8F08D0020054346EAE0762C43374321
:1006E0000A986305E40AA0EB08000022FD0A44EA28
:1006F00047540A3002D500200146E9E701051019E8
:100700006941DDE9084500196941BDE8F04DA2E7FE
:1007100000BFFEE700BFFEE700BFFEE700BFFEE749
:1007200000BFFEE710B5002807DA0A07140E054AD5
:1007300000F00F031B1FD45403E00A07130E024AF4
:10074000135410BD18ED00E000E400E000BFFEE728
:1007500000BFFEE710B501F0E3FD10BD1CB5A148D8
:10076000C06900F00600062871D09E48C069C0F339
:10077000403000286BD09C489A4948609B484860AC
:1007800099488860994888600846006940F02000D0
:1007900008610846006940F04000086100BF9148C8
:1007A000C06800F001000028F9D18E48006920F0EF
:1007B00020008C4908610846006940F0100008617B
:1007C0000846C06900F0060018B9A52088490880CD
:1007D00008E08448C06900F00600022802D1BB206E
:1007E000834908807F48C069000A00F0DF00804923
:1007F000891C08807B48C069C0F30740891C0880B9
:100800007848C069000E891C08807648006AC0B22A
:10081000891C08807348006AC0F30720891C08807F
:1008200000BF7048C06800F001000028F9D16D4891
:10083000006920F010006B4908610846006920F447
:10084000007008610846006940F08000086169484E
:10085000006840F47000674908606748006840F02D
:1008600001006549086000BF6348006800F00200AD
:100870000028F9D06048406800F00C00082866D1D4
:1008800000BF0020019002E00198401C01900198F7
:100890005028F9D3584840680090009820F0F000A4
:1008A0000090009840F08000009053490098486004
:1008B0000020019002E00198401C0190019850280E
:1008C000F9D34D4840680090009820F0F000009067
:1008D000009840F090000090474900984860002040
:1008E000019002E00198401C019001985028F9D332
:1008F000414840680090009820F0F0000090009877
:1009000040F0A00000903C49009848600020019011
:1009100002E00198401C019001985028F9D3364814
:1009200040680090009820F0F0000090009840F09F
:10093000B00000903049009848600020019002E02B
:100940000198401C019001985028F9D300BF2A4813
:10095000406820F0030028494860C82001F079F879
:100960002548006825490840234908600846406832
:10097000234908402049486008464068214908400A
:100980001D4948600846C06A1F4908401A49C862A4
:100990000846006B40F20311884317490863084674
:1009A000006B20F4803008630846006B20F00040A4
:1009B00008630846406B20F0010048630E48C030D1
:1009C000006820F48030C1F8C000002088600A4927
:1009D000CC31086002F048FD00214FF0006002F0C9
:1009E000B7F91CBD0020024023016745AB89EFCD5C
:1009F00000F8FF1F88ED00E000100240FFFFF2FE4C
:100A00000C00FF08FFFFC277F0FFFF3F10B5012188
:100A1000880702F04AFE012806D10121800702F072
:100A200041FE01200149087010BD000010000020A7
:100A300000BFFEE70FB4054B10B503A9044A0298A6
:100A400000F070FC10BC5DF814FB00007524000879
:100A5000D40000204100080218BF04200A0E18BF6D
:100A600040F001004FF07F4232EA010108BF40F040
:100A70000200012808BF05207047014621F0004010
:100A8000C0F1FF40C00F704710EE100A10B510EE15
:100A9000901A4FF0684202EB40032DED028BB3F148
:100AA000654F3CBF02EB4102B2F1654F7CD200BF03
:100AB000C0F3C753C1F3C7529A1A1B2A09DD10F0BD
:100AC000004F14BF9FED6E0A9FED6E0ABDEC028BC6
:100AD00010BD12F11A0F1BDA11F0004F09D010F0FF
:100AE000004F0CBF9FED680A9FED680ABDEC028BBA
:100AF00010BD80EE208A18EE100AFFF7ABFF042825
:100B000008BF00F085FAB0EE480ABDEC028B10BDBC
:100B10004200B2EB410F37D910F0004F19BFDFEDA3
:100B20005C1A9FED5C1ADFED5C1A9FED5C1AB0EE6B
:100B3000602A0A46F1EE400A80F00041B0EE420A17
:100B400010460A1A5200B2F1807F34D2484010F0A9
:100B5000004FDFED532A9FED533A1DBFBEEE002A32
:100B600071EEE21A31EE431AB6EE002A04BF71EEBE
:100B7000A21A31EE031AF0EE402A42EE602A40EE4D
:100B8000020A82EEA02A18E011F0004F04BF9FED88
:100B9000461AF0EE411AD4D010F0004F1CBFDFED22
:100BA000431A9FED431A00E026E004BFDFED411A2F
:100BB0009FED411AC5E780EE202A22EE020ADFED02
:100BC0003F0ADFED3F2ABDEC028B40EE202ADFED2D
:100BD0003D0A40EE220ADFED3C2A40EE202ADFEDFE
:100BE0003B0A40EE220A22EE000A00EE201A31EE05
:100BF000020A30EE210A10BD4FF07F42B2EB400FE7
:100C000028BFB2EB410F05D2BDEC028BBDE810400E
:100C100000F0F2B940EA01035B0008BF41F0FF4178
:100C20000BD0B2EB400F08BFB2EB410F08D120F060
:100C3000804000EE100A21F0804100EE901A37E764
:100C4000B2EB400F12BF5FEA410240F0FF4001F0FB
:100C500000413FF42DAF4A0092EA40033FF528AF30
:100C6000002AACBF9FED1A1A9FED1A1A20EE010A56
:100C700060EE810A10EE100A10EE901A18E70000DC
:100C8000DB0FC9BFDB0FC93FDB0F4940DB0F49C09A
:100C90000000C9BF22AAFDB90000C93F22AAFD3940
:100CA0000060ED3EC30ACE3700000000000049C0DE
:100CB00022AA7DBA0000494022AA7D3A2DAD65BD29
:100CC0008FB8D53D0FB511BE61C84C3EA8AAAABECB
:100CD0000000804F0000802F10EE101A08B5444A23
:100CE0006846B2EB410F28D94FF0E640B0EB410F18
:100CF00094BF00204FF0FF3000900098002861DB87
:100D000060EE000A10F0010F45D010F0020FDFED89
:100D1000391A9FED391A00EEE11ADFED381A40EE6C
:100D2000811A21EEA01AF0EE400A40EE010A08BF37
:100D3000F1EE600AB0EE600A08BD314B21F00042CE
:100D400093423CD911F0004FDFED2E0A20EE201A1D
:100D5000DFED2D0A19BF31EE601A71EE200A31EE77
:100D6000201A71EE600ABDEEE01A11EE100A9FED36
:100D7000271A00F0030000EEC10A9FED251A00902B
:100D800000EEC10A9FED231A00EEC10A9FED221A60
:100D900000EEC10AB1E79FED211A9FED210A10F084
:100DA000020F00EE810A9FED1F1A00EE801AB7EEC7
:100DB000000A00EE810A18BFB1EE400A08BD00F03B
:100DC0002FF99AE710EE100A4000B0F17F4F3CBFB8
:100DD000B7EE000A08BD07D14FF0010000F0DAF9C4
:100DE000BDE8084000F00CB9BDE8084000F001B9CA
:100DF000B61F927E336D4C39DA82083CA0AA2ABE17
:100E0000490E494683F9223F0000004B0000C93FCC
:100E100000A0FD390020A2331A61342CB93AB2BACD
:100E2000CA9F2A3DDDFFFFBE00B510EE101A2DED62
:100E3000028B81B0524A6846B2EB410F2ED94FF077
:100E4000E640B0EB410F94BF00204FF0FF30009020
:100E50000098B0EE408A00286ADB10F0010F4BD0FA
:100E600068EE080A9FED471A9FED470A00EE810AD7
:100E70009FED461A10F0020F00EE801AB7EE000A3E
:100E800000EE810A02BF01B0BDEC028B00BD00BFC5
:100E900001B0B1EE400ABDEC028B00BD3C4B21F02D
:100EA0000042934241D911F0004FDFED3A0A20EEA3
:100EB000201ADFED390A19BF31EE601A71EE200AEF
:100EC00031EE201A71EE600ABDEEE01A11EE100A42
:100ED0009FED321A00F0030000EEC10A9FED301AB8
:100EE000009000EEC10A9FED2F1A00EEC10A9FED9F
:100EF0002E1A00EEC10AABE728EE080A9FED2B1A66
:100F0000DFED2B0A10F0020F40EE410A9FED291A87
:100F100000EE201A61EE000AB0EE480A08EE200A40
:100F2000B6D101B0BDEC028B00BD00F079F88FE7BF
:100F300018EE100A4000B0F17F4F0DD218EE100AE3
:100F4000FFF788FD042808BF00F062F8B0EE480AF9
:100F500001B0BDEC028B00BD09D1012000F01AF9EF
:100F600001B0BDEC028B5DF804EB00F049B801B0B4
:100F7000B0EE480ABDEC028B5DF804EB00F039B826
:100F8000B61F927EB93AB2BACA9F2A3DDDFFFFBEB4
:100F9000490E494683F9223F0000004B0000C93F3B
:100FA00000A0FD390020A2331A61342C336D4C3976
:100FB000DA82083CA0AA2ABE10B52DED028BB1EE54
:100FC000C08A18EE100A20F00040C0F1FF40C00FA8
:100FD0000AD010EE100A20F00040C0F1FF40C00F10
:100FE00004BF012000F0D6F8B0EE480ABDEC028B39
:100FF00010BD30EE000A704730EE200A7047000046
:10100000DFED020A80EEA00A704700000000000039
:101010009FED020A20EE000A704700000000001059
:101020002DE9F0014FF07F42B2EB410F9FBF4FF02F
:10103000FF310160BDE8F00170474FF0004242EA25
:101040000123C1F3C752783A551112F01F0C434CDB
:10105000CCF120067C44C1F3C752A2F178024FEADA
:10106000621204EB820254F8254008BFD2E901560F
:1010700012D0556804FA0CF425FA06F73C43976839
:1010800005FA0CF527FA06F8D26807FA0CFCF240CC
:1010900045EA08054CEA0206A4FB034CA5FB0352F3
:1010A000A6FB03631D449D4234BF0126002613198D
:1010B000334416B1934202D903E0934201D2012294
:1010C00000E00022624402F1200C9206DC0C42EAAD
:1010D000443200EE102A5B03DFED210AF8EEC01A5D
:1010E00000EE103A4FEA9C1C11F0004FB8EE400A97
:1010F000C0F800C020EE201A00EE105ADFED190AE9
:10110000B8EE400A20EE200A71EE810A70EE800AE5
:1011100010EE902A02F500626FF30B0200EE902AA7
:1011200070EEE11A31EEC11ADFED101A30EE411AFD
:101130009FED0D0A20EE800A01EE210A9FED0C1AA8
:1011400000EE810A04BFBDE8F0017047CCF1805188
:101150000160BDE8F001B1EE400A7047F8270000D9
:10116000000000360000802C22AAFD29DB0FC92FC9
:101170000000C92F02E008C8121F08C1002AFAD1D6
:1011800070477047002001E001C1121F002AFBD107
:10119000704700000149086070470000D800002037
:1011A0002DE9FF5F82B00021DDE90430020DDDF89A
:1011B00040B0034318D044F61050A2F2FF3242432D
:1011C0001514119801281FD0A5EB0B00401C5FEAF5
:1011D000000A4FF000064E4FDFF83891B0465046F7
:1011E00015D5CAF1000413E0119801244AA301287F
:1011F00001D16FEA0B010298119AC0E90031C0E9F0
:10120000024206B0BDE8F09FCBF10000DFE70446E4
:101210000021404A491842EB0450CDE9001012E089
:10122000E00707D032463B4640464946FFF7BFF845
:101230008046894632463B4610461946FFF7B7F8C6
:1012400006460F466410002CEAD1DDE90401DDE911
:101250000023BAF1000F06DAFFF7A9F842464B4621
:10126000FFF7A5F805E0FFF714F942464B46FFF7F4
:1012700010F904460E460022284BFFF791F903D8D7
:101280004FF0FF30014607E00022254B2046314653
:10129000FEF7E6FFFFF76CF9102409E0002C0ADBEB
:1012A0000A220023FEF7ABFF039B30321A55641E5F
:1012B00050EA0102F2D1641C039AC4F111031444F0
:1012C000119A012A03D0012208430DD10AE00843F4
:1012D00004D000204FF0110B119072E7A3EB0B0527
:1012E0006D1E0DE05B4504DD4FF0000205F10105C8
:1012F00004E003DA4FF00002A5F10105002AECD06A
:1013000002981199C0E90231C0E9004579E700006F
:10131000000014400000F03F300000000000F043E7
:101320000000E03F2DE9FF4F95B09B4689460646F9
:1013300000250FE2252877D100242746F84A01210D
:10134000059400E0044316F8013F203B01FA03F046
:101350001042F7D130782A2811D06FF02F0330785F
:10136000A0F13002092A16D8059A44F0020402EBD3
:10137000820203EB42021044761C0590EFE759F815
:10138000042B0592002A03DA504244F400540590DD
:1013900044F00204761C30782E2816D116F8010F7E
:1013A00044F004042A280DD06FF02F023078A0F109
:1013B0003003092B09D807EB870302EB4303C71857
:1013C000761CF3E759F8047B761C30786C280FD034
:1013D00006DC4C2817D068280DD06A2814D104E008
:1013E000742810D07A280FD10DE044F400140AE0DC
:1013F00044F4801401E044F440147278824202D133
:1014000004F58014761C761C307866280BD013DC2B
:10141000582877D009DC002875D04528F6D0462812
:10142000F4D047281AD19DE118E0632835D064280C
:1014300079D0652812D195E1702873D008DC67282F
:10144000F1D069286FD06E280DD06F2806D1B5E095
:1014500073282CD0752875D0782874D05A461799DF
:1014600090476D1C75E1C4F30250022809D003288F
:101470000DD0D9F8001004280DD00D6009F1040931
:1014800067E1D9F80010EA17C1E90052F6E7D9F888
:1014900000100D80F2E70D70F0E719F8041B8DF8CD
:1014A000001000208DF80100EA46012003E059F801
:1014B00004AB4FF0FF3061074FF0000102D40DE0A4
:1014C00008F101018846B9420FDA8045F8DB1AF8C5
:1014D00008100029F4D108E008F101018846814292
:1014E000FADB1AF808100029F6D105985B46A0EB44
:1014F000080721463846179A00F094FA284400EB72
:10150000080507E04DE029E10DE01AF8010B5A4605
:1015100017999047B8F10108F7D25B462146384643
:10152000179A13E142E00A220092C4F302524FF0EC
:10153000000A022A08D059F804CB032A4FEAEC71BA
:101540000AD00DE029E02AE009F1070121F00702A5
:10155000F2E802C1914609E00FFA8CFC4FEAEC7107
:10156000042A03D14FFA8CFC4FEAEC71002907DA08
:101570000A460021DCF1000C61EB02012D2202E0A1
:10158000220504D52B228DF80420012203E0E20776
:1015900001D02022F7E7904659E00A2102E010220C
:1015A0000DE010214FF0000A00910BE010224FF0E7
:1015B000000A44F004040827009203E008224FF0D8
:1015C000000A0092C4F30252022A05D059F804CB53
:1015D0000021032A08D009E009F1070121F00702E0
:1015E000F2E802C1914605E01FFA8CFC042A01D101
:1015F0000CF0FF0C4FF00008220728D5702806D009
:10160000009B83F0100353EA0A0305D00EE040224A
:101610008DF80420012208E05CEA010206D03022A5
:101620008DF804208DF8050002229046009B83F07F
:10163000080353EA0A030AD15CEA010201D16207F6
:1016400005D530228DF804204FF001087F1E582860
:1016500004D034A003900EA802900DE036A0F9E764
:1016600053466046009AFEF7CAFD84460398825CA2
:101670000298401E029002705CEA0100F0D10298CC
:1016800006A9081A00F1200A600702D524F4803464
:1016900000E00127574502DDA7EB0A0000E000202B
:1016A00000EB0A01009005984144401A0590E003C0
:1016B00006D45B462146179A059800F0B3F9054415
:1016C000002706E001A85A46C05D179990476D1C97
:1016D0007F1C4745F6DBE0030CD55B462146179A95
:1016E000059800F09FF9054404E030205A46179908
:1016F00090476D1C0099481E00900029F5DC08E019
:10170000029802995A460078491C0291179990470D
:101710006D1CBAF10001AAF1010AF1DC65E10000DB
:1017200009280100303132333435363738396162B7
:10173000636465660000000030313233343536377B
:1017400038394142434445460000000000F058F952
:101750000544761C307800287FF4ECAD19B028469B
:10176000BDE8F08F620700D4062709F1070222F0D6
:10177000070CFCE80223E14603F000485FEA080C8E
:1017800002D00FF2702C0DE05FEA045C02D50FF27C
:10179000682C07E05FEAC47C02D00FF2602C01E005
:1017A000AFF2700C4FF0FF3823F00043CDF850C07B
:1017B00065280CD006DC452809D046281DD04728CE
:1017C0003DD13DE0662818D067287ED138E0002161
:1017D000112F01DB112000E0781CCDE9000106A9E2
:1017E0000EA8FFF7DDFCDDE90F010E9A0391002141
:1017F000009207F1010A04914DE04FF0004000977C
:10180000CDE9011006A90EA8FFF7CAFCDDE90F0219
:1018100003920E9B11990022DDF80CA00093049214
:1018200011B9791C00EB010AB7EB0A0004D4C0F12E
:10183000FF3007F1010A0490AAEB0700019044E091
:10184000012F00DA01270021112F01DD112000E016
:101850003846CDE9000106A90EA8FFF7A1FCDDE995
:101860000F010E9A0391002104910092BA462107BC
:101870000CD40399514500DA8A46BAF1010F05DD0F
:10188000009AAAF10101515C302908D0B84202DA6D
:1018900010F1040F06DA0121CDE9011015E0AAF1DB
:1018A0000101E9E7002805DC049901440491AAEB51
:1018B000000102E0411C514500DD8A460499401AAE
:1018C000401C01904FF000400290200704D4019882
:1018D000504501DBCDF8048000208DF84F000298C0
:1018E0000DF14F07B0F1004F25D02B200E9002983C
:1018F0004FF0020800280CDA404202902D200E9092
:1019000007E00A210298FEF764FC3031029007F8E4
:10191000011DB8F10001A8F10108F2DC02980028CD
:10192000EFD1791E0E980870307800F0200040F05A
:10193000450007F8020D12A8C01B00F10708149813
:10194000007800B1012000EB0A01019801EBE07181
:1019500005984144401A401E0590E00306D45B46BA
:101960002146179A059800F05DF805441498007810
:1019700018B15A46179990476D1CE00324D55B4671
:101980002146179A059800F04DF805441CE004988C
:10199000002807DBDDE90301884203DD0098405C95
:1019A000179901E0179930205A469047049805F19D
:1019B0000105401C04900198401E019004D12E2086
:1019C0005A46179990476D1CBAF10001AAF1010A15
:1019D000DDDC05E017F8010B5A46179990476D1C9E
:1019E000B8F10001A8F10108F4DC5B462146179A22
:1019F0000598ABE62D0000002B0000002000000041
:101A00002DE9F041044600251E461746880404D4FB
:101A100005E039462020B0476D1C641EF9D52846E4
:101A2000BDE8F0812DE9F041044600251E469046B0
:101A3000C80301D5302700E02027880404D505E03D
:101A400041463846B0476D1C641EF9D52846BDE8AE
:101A5000F08108B50021009102E00099491C009135
:101A600000EB8001009AB2EB410FF6D308BD0000F5
:101A700010B52DED108B86B0FC48007800287CD086
:101A8000FB4890ED030AFB48D0ED000A30EE200A37
:101A900080ED000AF64890ED040AF748D0ED000A00
:101AA00030EE200A80ED000AF14890ED050AF34877
:101AB000D0ED000A30EE200A80ED000AF0480088E0
:101AC000401CEF49088008460088C82864DBE948C4
:101AD00090ED000ADFEDEB0A80EE201AEA4880ED77
:101AE000001AE54890ED000ADFEDE60A80EE201AC4
:101AF000E64880ED001AE14890ED000ADFEDE10ACA
:101B000080EE201AE24880ED001AD94890ED060ACE
:101B1000DF4880ED010AD648D0ED010A60EEA00A48
:101B200090ED021AD0ED021A41EE210AB0EE600AE1
:101B3000FFF742FA8DED000ACD48D0ED000AF1EE34
:101B4000600AB0EE600ADDED000AFEF79DFFDFEDF2
:101B5000D10A20EE200A8DED020AC54890ED021A46
:101B6000F0EE410A90ED011AB0EE410AFEF78CFF4B
:101B7000DFEDC80A20EE200A00E052E08DED010AF8
:101B80009FEDC51ADDED010A9DED020A00F0EAFBAA
:101B90000020B649087043E0B548D0ED010A60EE78
:101BA000A00A90ED021AD0ED021A41EE210AB0EE21
:101BB000600AFFF701FA8DED000AAD48D0ED000A8A
:101BC000F1EE600AB0EE600ADDED000AFEF75CFFA0
:101BD000DFEDB00A20EE200A8DED020AA44890ED58
:101BE000021AF0EE410A90ED011AB0EE410AFEF73A
:101BF0004BFFDFEDA80A20EE200A8DED010A9DEDD6
:101C0000020AA64880ED000A9DED010A80ED010A56
:101C10009FEDA10A80ED020A06B0BDEC108B10BD4D
:101C200000BF934890ED030A9748D0ED000A70EE8C
:101C300060DA8F4890ED040A9448D0ED000A30EE47
:101C400060EA8B4890ED050A9148D0ED000A70EEED
:101C500060CAB0EEED0AF0EE000AB4EEE00AF1EE72
:101C600010FA13D2B0EECE0AF0EE000AB4EEE00A9B
:101C7000F1EE10FA0AD2B0EEEC0AF0EE000AB4EE81
:101C8000E00AF1EE10FA01D2012000E00020044643
:101C90002CB183480088401C8149088011E0002055
:101CA0007F4908809FED7C0A7E4880ED000A9FED09
:101CB0007A0A7D4880ED000A9FED770A7B4880ED27
:101CC000000A7B48D0ED009A90ED018AD0ED028A9F
:101CD00090ED039A9FED770A2DEE80BA9FED750A7D
:101CE0006EEE00BA9FED730A2CEE80CA9FED72AAC9
:101CF000B1EE480A20EE0B0A08EEEB0A09EE4C0A98
:101D000020EE0A0A8DED050A29EE8B0A08EE8C0AF0
:101D100009EE6B0A60EE0AEA29EEAB0A08EE4C0AFD
:101D200009EE0B0A20EE0AFA29EE8C0A08EE2B0ABD
:101D300008EECB0A60EE0AFA4D48D0ED000A60EEDC
:101D4000A00A90ED011AD0ED011A41EE210A90EDA2
:101D5000021AD0ED021A41EE210AB0EE600AFFF736
:101D60002BF9F0EE40AA4E4800880A287DDD9FED51
:101D7000530AF4EEC0AAF1EE10FA76DD9FED500A98
:101D8000F4EEC0AAF1EE10FA6FD23948D0ED005A45
:101D900085EEAA6AB0EE460AD0ED015A85EEAA6A2F
:101DA000F0EE460AD0ED025A85EEAA6AB0EE461A67
:101DB00068EE095A49EEE85AB0EE006A65EE865AB6
:101DC000F0EE651A69EE885A48EE895AB0EE006A5C
:101DD00065EE865AB0EE652A69EEA95A48EE485A71
:101DE00048EEE85A49EE095AF0EE652A60EEA25A2A
:101DF00041EE425AB0EE653A61EE215A40EE625A27
:101E0000F0EE653A60EE025A40EEE15AB0EE654AF5
:101E1000F6EE005AF0EE654ADFED2A5AB0EE655A4A
:101E20002048D0ED005A9FED276A43EE065AC0EDD8
:101E3000005A1D48D0ED005A9FED226A43EE865AA3
:101E4000C0ED005A1948D0ED005A9FED1E6A44EECD
:101E5000065AC0ED005A1348D0ED005AB6EE006A9B
:101E600043EE065AB0EE6E6A2EE04CE09C00002075
:101E7000DC000020A8000020AC000020B000002002
:101E8000B400002000004843A0000020A40000206F
:101E900000000020333365420000000008010020EC
:101EA000C4000020B8000020BC000020C0000020BA
:101EB0002001002039FA8E3C0AD7A33B9A99593F5A
:101EC0003333933F6F12833A05EE8A6AF0EE46EAA7
:101ED0007B48D0ED005AB6EE006A43EE865AB0EE6B
:101EE0004F6A05EE8A6AB0EE46FA7648D0ED005A9F
:101EF000B6EE006A44EE065AB0EE6F6A05EE8A6AE4
:101F0000F0EE46FA00BF7048D0ED000A9DED050ADC
:101F100030EE800A80ED000A90ED010A30EE2E0AC4
:101F200080ED010A90ED020A30EE0F0A80ED020A00
:101F300090ED030A30EE2F0A80ED030A00F07AFFDD
:101F400062480088642832DD614890ED000ADFEDC8
:101F5000610A20EE200A6048D0ED030A1FED271A1F
:101F600000EE810A5A4880ED000A5C4890ED000AB4
:101F7000DFED580A20EE200A5748D0ED040A1FED85
:101F80002F1A00EE810A554880ED000A544890ED62
:101F9000000ADFED500A20EE200A4F48D0ED050A76
:101FA0001FED381A00EE810A4D4880ED000A4648C0
:101FB00090ED000AF0EE409A90ED010AB0EE408AF2
:101FC00090ED020AF0EE408A90ED030AB0EE409ADE
:101FD00028EE090A09EEE80AF0EE000A20EE200ACF
:101FE0008DED040A29EE880A08EE890AF0EE000A4F
:101FF00060EE200ACDED030A29EEA90A08EE480A90
:1020000008EEE80AB0EE40DA09EE09DADDED030A7F
:1020100060EEA00A4DEE0D0AB0EE600AFEF7CCFFAE
:102020008DED020ADDED020A9DED040AB1EE400AD3
:10203000FEF72AFD5FED690A20EE200A294880EDAF
:10204000000AF0EE4D0A9DED030AFEF71DFD5FED5F
:102050006F0A20EE200A234880ED010A90ED020A63
:10206000DFED210A0CEEA00A80ED020A08E01D480F
:1020700090ED020ADFED1D0A30EE600A80ED020AE3
:10208000184890ED020ADFED1A0AB4EEE00AF1EE0C
:1020900010FAECDC08E0134890ED020ADFED130AB9
:1020A00030EE200A80ED020A0E4890ED020ADFEDC4
:1020B000110AB4EEE00AF1EE10FAECD300BFABE582
:1020C000BC000020C000002020010020C40000202F
:1020D000A000002077BE7F3FDC000020A40000208D
:1020E00000000020080100200AD7233C0000B44370
:1020F00000003443000034C310B52DED0A8BFFF708
:10210000B7FC4A48007800287DD14948007800286B
:1021100079D1484890ED000ADFED470A20EE200A09
:10212000B0EE40AAB0EE4A0AFEF7D6FDF0EE408AC5
:10213000B0EEE80ADFED410AB4EEE00AF1EE10FA83
:1021400070DD3C4890ED010ADFED3B0A20EE200AED
:10215000F0EE40AAB0EE4A0AFEF766FEB0EE409AF4
:10216000B0EE6A0AFEF7B8FDB0EE40BAB0EE6A0A09
:10217000FEF75AFEF0EE409A314890ED000A20EE4C
:10218000280AD0ED020A00EE890AF0EE40BA90ED7E
:10219000000A20EE290A20EE090AD0ED010A00EE1D
:1021A0008B0AD0ED020A60EEA90A00EEE80AB0EE52
:1021B00040CAF0EE6B0AB0EE4C0AFEF765FCDFEDAC
:1021C000210A20EE200AF0EE40CA1A4890ED020AD9
:1021D0003CEEC00AB0EE408A9FED1B0AB4EEC08A06
:1021E000F1EE10FA05DD9FED190A38EE400AB0EE67
:1021F000408A9FED170AB4EEC08AF1EE10FA07D2BA
:102200009FED120A00E00EE038EE000AB0EE408AC0
:10221000084890ED020ADFED0F0A08EE200A80ED73
:10222000020A00BF00BFBDEC0A8B10BD08000020F1
:10223000090000200801002039FA8E3C9A99193EC5
:10224000F800002033336542000034430000B443FB
:10225000000034C30AD7233C10B540F2115000F0FF
:1022600085FF40F20E6000F081FF4FF40072012103
:102270004FF0904000F012F94FF4806201214FF0CE
:10228000904000F00BF94FF40073012202214FF04F
:10229000904000F069F94FF40073012200214FF0E3
:1022A000904000F088F94FF48063012202214FF042
:1022B000904000F059F94FF48063012200214FF063
:1022C000904000F078F9104801F058FA00210E48CB
:1022D00001F0B1FA00210C4801F099FA00210A48F6
:1022E00001F081FA4FF4E131074801F005FA0421C9
:1022F000054801F084FA0821034801F094FA0248E5
:1023000001F05CFA10BD000000380140034908608C
:1023100000BF024909680029FBD17047CC000020AA
:102320000448006820B103480068401E0149086065
:1023300070470000CC000020002110E000BF00BF6B
:1023400000BF00BF00BF00BF00BF00BF00BF00BF95
:1023500000BF00BF00BF00BF00BF00BF491C8142DB
:10236000ECD3704710B52DED0C8BB0EE40BAF0EE0B
:1023700060BAB0EE41CA9FED380A2BEE000AF6EEC5
:10238000000A20EE200AF0EE40CA9FED330A2BEE41
:10239000800AF6EE000A20EE200AB0EE40DA9FED49
:1023A0002E0A2CEE000AF6EE000A20EE200AF0EECD
:1023B00040DAB0EE6C0AFEF78FFCB0EE408AB0EE69
:1023C0006C0AFEF731FDF0EE408AB0EE4D0AFEF7E2
:1023D00083FCB0EE409AB0EE4D0AFEF725FDF0EE1C
:1023E000409AB0EE6D0AFEF777FCB0EE40AAB0EE70
:1023F0006D0AFEF719FDF0EE40AA28EE090A20EE5C
:102400000A0A68EEA90A00EEAA0A144880ED000A3A
:1024100028EE890A20EE0A0A68EE290A00EEEA0A86
:1024200080ED010A28EE290A20EE0A0A68EE890AE0
:1024300000EEAA0A80ED020A28EE090A20EE2A0A16
:1024400068EEA90A00EECA0A80ED030A00F0F2FC69
:10245000BDEC0C8B10BD000039FA8E3C2001002031
:1024600070B504460D461646324621462846FDF70D
:102470008BFE70BD70B504460D46E1B2064801F012
:1024800079F900BF40F20771034801F09CF9002878
:10249000F8D0204670BD000000380140F0B503467A
:1024A0001C6A5D6A00200DE00126864016403EB1A0
:1024B00087000F26BE40B443860001FA06F6344377
:1024C000461CB0B20828EFD3082011E00126864050
:1024D00016405EB1A0F10806B7000F26BE40B54316
:1024E000A0F10806B60001FA06F63543461CB0B264
:1024F0001028EBD31C625D62F0BD81627047816180
:10250000704710B5012211464FF09040FFF7C6FF0B
:10251000022201214FF09040FFF7C0FF01231A462D
:1025200002214FF0904000F01FF8012303221946CA
:102530004FF0904000F03FF80223012219464FF07F
:10254000904000F011F80223032201214FF0904047
:1025500000F031F810BD0246002013690B400BB1AA
:10256000012000E000207047F0B504460D461646F5
:102570002168E268002019E0012787401F409FB1D1
:102580004FEA400C032707FA0CF7B943470005FA56
:1025900007F739434FEA400C032707FA0CF7BA4311
:1025A000470006FA07F73A43471CB8B21028E3D3AE
:1025B0002160E260F0BDF0B504460E46012E03D165
:1025C00067681F43676002E067689F436760A168B0
:1025D0004FF6FF77BA4216D1E56B00200EE00127D7
:1025E00087401F4047B14FEA400C032707FA0CF71A
:1025F0003943012787403D43471CB8B21028EED32A
:10260000A160E56314E000200FE0012787401F4030
:102610004FB14FEA400C032707FA0CF7B9434700C4
:1026200002FA07F73943471CB8B21028EDD3A1606E
:10263000F0BD10B500F0CAFD10BD2DE9F041074610
:102640000C46154600F08DFE002141EA4401C8B257
:1026500000F031FE284600F02EFE00F082FE01213F
:1026600001EB4401C8B200F026FE002000F0CFFDCF
:10267000064600F095FE3046BDE8F0812DE9F047B2
:1026800081460D4616461F46DDF8208000F069FEA3
:10269000002141EA4501C8B200F00DFE304600F0CD
:1026A0000AFE00F05EFE012101EB4501C8B200F018
:1026B00002FE00240CE0A8F10101A14201DD01218C
:1026C00000E00021084600F0A2FD3855601C84B2ED
:1026D0004445F0DB00F064FEBDE8F0872DE9F041F1
:1026E00007460C4615461E4600F03BFE002141EA17
:1026F0004401C8B200F0DFFD284600F0DCFD3046A2
:1027000000F0D9FD00F04CFEBDE8F08100B52DEDE4
:10271000088B85B000200290039004900C2002AB3F
:102720000B22682100904748FFF7A8FF9DF8090099
:102730009DF8081040EA012000B20BEE100A9DF847
:102740000B009DF80A1040EA012000B208EE100AC2
:102750009DF80D009DF80C1040EA012000B208EE33
:10276000900AB8EECB0ADFED380A80EE201A37481F
:1027700080ED001AB8EEC80ADFED330A80EE201AA9
:1027800080ED011AB8EEE80ADFED2F0A80EE201A7C
:1027900080ED021A9DF80F009DF80E1040EA01200E
:1027A00000B209EE100A9DF811009DF8101040EAE1
:1027B000012000B209EE900A9DF813009DF8121056
:1027C00040EA012000B20AEE100AB8EEC90ADFEDB5
:1027D000200A80EE201A1D4880ED031AB8EEE90A9F
:1027E000DFED1B0A80EE201A80ED041AB8EECA0A4B
:1027F000DFED170A80EE201A80ED051A0020019007
:10280000022001AB0922682100900E48FFF736FF35
:102810009DF805009DF8041040EA012000B20AEE80
:10282000900AF8EEEA0A9FED0B1A80EE810AF3EEA9
:10283000090A30EE200A054880ED060A05B0BDEC15
:10284000088B00BD0054004000008046DC000020E2
:102850006F120343E17A044310B5752268211348CF
:10286000FFF7EBFE0446672C00D010BD00231F22AB
:1028700068210E48FFF732FF6420FFF747FD0F2362
:102880001F2268210948FFF729FF1E20FFF73EFDA0
:102890006823212219460548FFF720FF68232022DC
:1028A00019460248FFF71AFF00BFDEE70054004058
:1028B00070B52DED048B0546284600F00FFFFFF79D
:1028C00025FF00F051FA00F005F93B480078012897
:1028D00002D1FFF7CDF801E0FFF70EFC374890ED8D
:1028E000020AD0ED050A30EE600AB0EEC08A9FED14
:1028F000340AB4EEC08AF1EE10FA05DD9FED310A1C
:1029000030EE480AB0EE408A2C4890ED000AD0ED37
:10291000030A30EE600AF0EEC08A90ED010AD0EDB5
:10292000040A30EE600AB0EEC09A0024B2EE040A47
:10293000F4EEC08AF1EE10FA0DDAB2EE040AB4EE4B
:10294000C09AF1EE10FA06DAB2EE040AB4EEC08ACA
:10295000F1EE10FA00DB0124012C26D11A48008880
:10296000401C1949088008460088C82820D9002042
:10297000B2EE040AF4EEC08AF1EE10FA06DAB2EE14
:10298000040AB4EEC09AF1EE10FA01DB40F0010047
:10299000B2EE040AB4EEC08AF1EE10FA01DB40F0A8
:1029A0000200C821084A118002E000200649088080
:1029B000BDEC048B70BD0000080000200801002061
:1029C000000034430000B4430A00002010B5FFF7B4
:1029D00043FF00F01FFA00F001F810BD10B51822F7
:1029E00029492A48FFF73CFD082229492948FFF7D1
:1029F00037FD254890ED030A10EE101A0846FEF741
:102A00003CF8D8B9204890ED020A10EE101A08469A
:102A1000FEF733F890B91C4890ED030ADFED1E0A6B
:102A2000B4EEE00AF1EE10FA08DC90ED030ADFEDF7
:102A30001B0AB4EEE00AF1EE10FA24D29FED180A58
:102A4000114880ED000A9FED160A80ED010A9FED06
:102A5000140A80ED030A9FED120A80ED040A9FED2F
:102A6000100A80ED050A9FED0E0A80ED020A9FED27
:102A70000C0A074880ED000AB3EE090A80ED010A4E
:102A800008A0FDF7D7FF10BD0801002000FC0008DA
:102A90000000002000FE000800007A4400007AC414
:102AA00000000000466C61736820646174612069F5
:102AB0006E76616C69642C207573696E672064653D
:102AC0006661756C74207A65726F20706F696E74C0
:102AD000210A00000F48D0ED030A0F4890ED001ABC
:102AE00070EEC10AF0EEE00AB0EE600A0948D0EDDF
:102AF000030A0948C0ED000ADFED080AB4EEE00A57
:102B0000F1EE10FA01DD012000E000200449087018
:102B100070470000F8000020980000200000F042FC
:102B2000090000202DED068B84B000F0A1FCFFF71A
:102B300093FB2AA0FDF77EFF00F012FBFFF7E1FCFC
:102B4000FFF777FD29A0FDF775FFFFF73FFF00F0C6
:102B5000B7FC2AA0FDF76EFF3EE02D480078B8B321
:102B60000C20FFF7A5FE00202949087029480068BD
:102B7000401C28490860084600686421B0FBF1F257
:102B800001FB120020BB244890ED020A10EE101A3F
:102B90000846FDF70BFB41EC180B1F4890ED010AAE
:102BA00010EE101A0846FDF701FB41EC190B1A480C
:102BB00090ED000A10EE101A0846FDF7F7FA41EC06
:102BC0001A0B8DED028B8DED009B53EC1A2B00E060
:102BD00002E012A0FDF72EFFBFE7000048656C6C15
:102BE0006F7720776F7264210A000000493243201A
:102BF000696E697420646F6E65210A0074696D6581
:102C00007220696E697420646F6E65210A0000008D
:102C100010000020C800002008010020503D252E93
:102C200031662C523D252E31662C593D252E3166BC
:102C30000D0A00002DE9F04F03460E4617463D48A9
:102C4000006800F4E060B0F5A06F0FD006DCB0F5CE
:102C5000407F0DD0B0F5806F0BD108E0B0F5C06FAC
:102C600003D0B0F5E06F04D100BF00BF00BF00BFCC
:102C700004E04FF4A06000F061F800BF00BF00BFA7
:102C80002C480068C0F30220044620463246BC4669
:102C90000146C1F1070ABAF1040F02D94FF0040A44
:102CA00001E0C1F1070AD14601F1040ABAF1070FA8
:102CB00002D24FF0000A01E0A1F1030AD0464FF022
:102CC000010A0AFA09FAAAF1010A0AEA020A0AFA48
:102CD00008FA4FF0010B0BFA08FBABF1010B0BEA02
:102CE0000C0B4AEA0B0500BF1946284600290BDAEF
:102CF00002074FEA12680F4A0C3201F00F0CACF1D8
:102D0000040C02F80C8005E002074FEA126C0A4A34
:102D100002F801C000BF00BF03F01F01012088407E
:102D20005909890001F1E021C1F8000100BFBDE8A7
:102D3000F08F00000CED00E000E400E002490143E8
:102D4000024A1160704700000000FA050CED00E037
:102D5000034A0A400243034B1A60BFF34F8F704788
:102D600080FFFF1F08ED00E000B52DED048B83B060
:102D7000002001900290062001AB00222C2100903F
:102D80002248FFF77BFC9DF804009DF8051040EAFF
:102D9000012000B208EE100A9DF806009DF8071009
:102DA00040EA012000B208EE900A9DF808009DF864
:102DB000091040EA012000B209EE100AB8EEC80A74
:102DC000134880ED000AB8EEE80A80ED010AB8EE7B
:102DD000C90A80ED020AD0ED000A60EEA00A90ED6B
:102DE000011AD0ED011A41EE210A90ED021AD0ED40
:102DF000021A41EE210AB0EE600AFEF7DDF804483F
:102E000080ED030A03B0BDEC048B00BD005400400C
:102E1000F800002010B51D2309222C210448FFF7DB
:102E20005DFC00230A222C210148FFF757FC10BD4E
:102E30000054004010B52DED028B2048D0ED000A63
:102E400060EEA00A90ED011AD0ED011A41EE210AC0
:102E500090ED021AD0ED021A41EE210A90ED031A0C
:102E6000D0ED031A41EE210AB0EE600AFEF7A4F895
:102E7000B0EE408A9FED120AB4EEC08AF1EE10FA6D
:102E800018DD0E4890ED000AC0EE080AC0ED000AF9
:102E900090ED010AC0EE080AC0ED010A90ED020AA9
:102EA000C0EE080AC0ED020A90ED030AC0EE080A5F
:102EB000C0ED030ABDEC028B10BD00002001002014
:102EC00017B7D1382DE9F04F92B084460020119009
:102ED000109000240F90002500210E9000230D90EB
:102EE0000C900B900022002600270A900990089071
:102EF0008046814690A090E8004CC068CDE905BEB0
:102F0000CDF810A007900FF2342ADAE9000ACDE9D3
:102F1000020A0FF2282ADAE9000ACDE9000A8A48F3
:102F20004068C0F381001190119820B1012804D0AD
:102F3000022847D103E0854D46E0844D44E08248B5
:102F40004068C0F3834280484068C0F3C0667E4852
:102F5000C06AC70F0EB907B9921C012E01D107B97B
:102F6000113216B9012F00D12132012E02D1012FC9
:102F700000D1313274484068C0F300400A90724872
:102F8000C06AC0F3807009900A98B8B16E48C06AF0
:102F900000F00F00401C0890099838B9DFF8ACA188
:102FA0000898BAFBF0F000FB02F50AE0DFF8A0A1F8
:102FB0000898BAFBF0F000FB02F502E0654802FB5E
:102FC00000F501E0614D00BF00BF5F484068C0F3FD
:102FD000031804A810F8089025FA09F15A48406827
:102FE000C0F3022802A810F8089021FA09F00E9008
:102FF00055484068C0F3C2281DF8089021FA09F32B
:10300000BCF1070F75D2DFE80CF00406080B0D5D6C
:103010006D000F958BE00F9189E00E980F9086E080
:103020000F9384E04848006B00F48070B0F5807F17
:103030000CD04548006B00F48030B0F5803F02D0E2
:1030400045480D903BE045480D9038E03E484068CB
:10305000C0F3813010903C48006BC40F109830B121
:1030600001280DD0022814D0032826D11CE014B961
:1030700058080D9003E00320B1FBF0F00D901DE027
:1030800014B998080D9003E00520B1FBF0F00D9005
:1030900014E024B90620B3FBF0F00D9003E0072004
:1030A000B1FBF0F00D9009E014B9D8080D9003E0E1
:1030B0000920B1FBF0F00D9000E000BF00BF0D98BB
:1030C0000F9034E02048006B00F04000402803D00F
:1030D00048F212000C9002E04FF400400C900C9863
:1030E0000F9024E01848006B00F0030010B90B9318
:1030F00019E01BE01448006B00F00300012801D127
:103100000B9510E01048006B00F00300022802D17C
:1031100080030B9007E00C48006B00F003000328CD
:1031200001D10A480B900B980F9000E000BF00BF40
:103130000F9812B0BDE8F08F000000000000000002
:1031400001020304060708090010024000127A0079
:10315000006CDC0200093D00809FD500003FAB0100
:1031600010B540F2115000F001F810BD064A02EB14
:103170009011096800F01F0301229A401143024B8D
:1031800003EB90121160704700100240064A02EBF8
:103190009011096800F01F0301229A409143024BED
:1031A00003EB90121160704700100240064A02EBD8
:1031B0009011096800F01F0301229A401143024B4D
:1031C00003EB9012116070470010024010B540F2FE
:1031D0001150FFF7CBFF0323012211464FF090401F
:1031E000FFF7C2F903231A4601214FF09040FFF781
:1031F000E2F901214FF09040FFF781F902214FF0F1
:103200009040FFF77CF90A20FFF780F810BD70B5F9
:103210000546002402214FF09040FFF770F9002688
:103220001EE001214FF09040FFF767F90520FFF7FE
:1032300083F801214FF09040FFF761F90320FFF779
:103240007BF86006040E02214FF09040FFF783F9EF
:1032500008B144F001040220FFF76EF8701CC6B2FA
:10326000082EDEDB01214FF09040FFF746F90320E6
:10327000FFF762F82DB102214FF09040FFF73DF9C2
:1032800004E002214FF09040FFF739F90220FFF7E8
:1032900053F801214FF09040FFF731F90520FFF777
:1032A0004BF801214FF09040FFF727F90520FFF779
:1032B00043F8204670BD70B50446002524E0012186
:1032C0004FF09040FFF719F90320FFF735F804F0AD
:1032D000800028B102214FF09040FFF710F904E080
:1032E00002214FF09040FFF708F90220FFF724F881
:1032F00001214FF09040FFF702F90520FFF71CF87D
:103300006006040E681CC5B2082DD8DB01214FF001
:103310009040FFF7F2F80320FFF70EF802214FF07C
:103320009040FFF7ECF80220FFF706F801214FF07C
:103330009040FFF7E4F80520FEF7FEFF02214FF072
:103340009040FFF708F9064601214FF09040FFF743
:10335000D4F80520FEF7F0FF0EB1012070BD00206B
:10336000FCE710B502214FF09040FFF7C8F80121AB
:103370004FF09040FFF7C3F80520FEF7DDFF022174
:103380004FF09040FFF7B9F80520FEF7D5FF012177
:103390004FF09040FFF7B1F80520FEF7CDFF10BDCC
:1033A00010B502214FF09040FFF7A7F801214FF030
:1033B0009040FFF7A4F80520FEF7BEFF02214FF072
:1033C0009040FFF79CF80520FEF7B6FF10BD000007
:1033D00008B522484068214948600846406840F4E2
:1033E000005048600846406840F4806048600846E5
:1033F00040681B490840194948600846C06A194995
:1034000008401649C8620846406840F001604860BC
:103410000846C06AC8620846006840F080700860CC
:1034200000BF0E48006800F000700028F9D00B487B
:1034300040680090009820F003000090009840F051
:103440000200009005490098486000BF03484068AA
:1034500000F008000028F9D008BD0000001002406C
:10346000FFFFC0F7F0FFFF3F10B5FFF7B1FF10BD42
:1034700010B5124800684FF47A71B0FBF1F4601E89
:10348000B0F1807F01D301200FE0601E4FF0E021FA
:1034900048610F214FF0FF30FDF744F900204FF055
:1034A000E021886107200861002008B100BFFEE725
:1034B0000021481EFDF736F910BD0000D0000020A5
:1034C0001FB54FF4E060FFF751FE4FF0804000F071
:1034D00027F8684600F0F7F842F2CF00ADF8000098
:1034E0000020ADF80200ADF8040063200290002037
:1034F000ADF806008DF80C0069464FF0804000F0F2
:1035000077F80121880700F0C9F8012200210F2077
:10351000FFF790FB4FF0804000F064F81FBD000003
:1035200010B504462D49601A8C4214D009DCB4F160
:10353000804F19D02A482044F8B1B0F5E05F49D156
:1035400024E0B0F5A05F2AD0B0F5C05F30D0B0F570
:10355000E05F3FD135E040F20B30FFF727FE40F24D
:103560000B30FFF713FE36E04FF48060FFF71EFECE
:103570004FF48060FFF70AFE2DE040F20140FFF7B4
:1035800015FE40F20140FFF701FE24E04FF4816098
:10359000FFF70CFE4FF48160FFF7F8FD1BE04FF4DE
:1035A0004470FFF703FE4FF44470FFF7EFFD12E0A5
:1035B00040F21130FFF7FAFD40F21130FFF7E6FD5F
:1035C00009E040F21230FFF7F1FD40F21230FFF750
:1035D000DDFD00E000BF00BF10BD0000002C014079
:1035E00000FCFFBF016841F001010160704700006D
:1035F0000A888262234A904205D0B0F1804F02D0FF
:10360000214A90420BD1026822F0700202600268E7
:103610004B881A43026002688B881A4302608A68EA
:10362000C262184A904211D0B0F1804F0ED0164AB3
:1036300090420BD0154A904208D0154A904205D0CE
:10364000144A904202D0144A904207D1026822F4F0
:10365000407202600268CB881A430260094A9042B5
:1036600008D00B4A904205D00A4A904202D00A4A3A
:10367000904201D10A7B0263426942F00102426139
:1036800070470000002C0140000400400020004072
:10369000004001400044014000480140C2680A4324
:1036A000C2607047CA430261704710B502460020ED
:1036B000D46804EA010314690C4014B10BB1012071
:1036C00000E0002010BD00210180418081804FF684
:1036D000FF7181600021C18001737047062805DBFE
:1036E000162803DA0121034A117002E00021014A81
:1036F00011707047080000202DE9F04704460D4680
:103700000027B846B94600261948204438B1B0F51C
:10371000744F09D10620FFF7D5FB074605E00220CC
:10372000FFF7D0FB074600E000BF00BF206800F4B1
:10373000004070B1780000EB5500B0FBF5F64FF695
:10374000F07006EA0008C6F3420948EA0900E060A2
:103750000CE007EB5500B0FBF5F64FF6F07006EA0B
:10376000000806F00F0948EA0900E060BDE8F087AC
:1037700000BCFFBFC1F308028262704710B5044667
:103780000D48204458B1B0F5744F11D140F20E30BD
:10379000FFF70CFD40F20E30FFF7F8FC09E040F2B5
:1037A0001140FFF703FD40F21140FFF7EFFC00E08E
:1037B00000BF00BF10BD000000BCFFBF016841F0AA
:1037C00001010160704730B50246002002EB911301
:1037D0001B6801F01F050124AC4023400BB1012000
:1037E00000E0002030BD026822F0010202600268A1
:1037F00022F4C062026002680A43026070470268F5
:1038000022F00402026002680A4302607047026804
:1038100022F001020260426822F440524260426893
:103820000A4342607047026822F0080202600268A0
:103830000A4302607047026822F0010202600268D7
:1038400022F48052026002680A430260704700005E
:10385000000000006E83F9A22915444ED15727FCC1
:10386000C0DD34F5999562DB4190433CAB6351FE7A
:103870009038000800000020DC00000074110008EF
:103880006C390008DC00002074040000841100087A
:103890000000000000000000010000000000000027
:1038A000000A0D555341525420696E746572727549
:1038B000707420746573740A0D000000000000002D
:1038C00000000000000000000000000000000000F8
:1038D00000000000000000000000000000000000E8
:1038E00000000000000000000000000000000000D8
:1038F00000000000000000000000000000000000C8
:1039000000000000000000000000000000000000B7
:1039100000000000000000000000000000000000A7
:10392000007F2000000000000000000001000000F7
:103930000000000000000000000000000000000087
:103940000000000000000000000000000000000077
:103950000000000000000000000000000000000067
:0C39600000BD0105000000000000000098
:04000005080001519D
:00000001FF
